{
  "contractName": "Shipment",
  "abi": [
    {
      "inputs": [],
      "payable": false,
      "stateMutability": "nonpayable",
      "type": "constructor"
    },
    {
      "anonymous": false,
      "inputs": [
        {
          "indexed": false,
          "internalType": "string",
          "name": "packageId",
          "type": "string"
        },
        {
          "indexed": false,
          "internalType": "enum Shipment.DeliveryStatus",
          "name": "status",
          "type": "uint8"
        }
      ],
      "name": "DeliveryStatusUpdated",
      "type": "event"
    },
    {
      "anonymous": false,
      "inputs": [
        {
          "indexed": true,
          "internalType": "address",
          "name": "sender",
          "type": "address"
        },
        {
          "indexed": false,
          "internalType": "uint256",
          "name": "amount",
          "type": "uint256"
        }
      ],
      "name": "Funded",
      "type": "event"
    },
    {
      "anonymous": false,
      "inputs": [
        {
          "indexed": false,
          "internalType": "string",
          "name": "packageId",
          "type": "string"
        },
        {
          "indexed": false,
          "internalType": "address",
          "name": "sender",
          "type": "address"
        },
        {
          "indexed": false,
          "internalType": "address",
          "name": "receiver",
          "type": "address"
        },
        {
          "indexed": false,
          "internalType": "uint256",
          "name": "value",
          "type": "uint256"
        }
      ],
      "name": "PackageCreated",
      "type": "event"
    },
    {
      "anonymous": false,
      "inputs": [
        {
          "indexed": false,
          "internalType": "string",
          "name": "packageId",
          "type": "string"
        },
        {
          "indexed": false,
          "internalType": "address",
          "name": "sender",
          "type": "address"
        },
        {
          "indexed": false,
          "internalType": "uint256",
          "name": "amount",
          "type": "uint256"
        }
      ],
      "name": "PackageDelivered",
      "type": "event"
    },
    {
      "payable": true,
      "stateMutability": "payable",
      "type": "fallback"
    },
    {
      "constant": false,
      "inputs": [
        {
          "internalType": "string",
          "name": "_packageId",
          "type": "string"
        },
        {
          "internalType": "address",
          "name": "_receiver",
          "type": "address"
        },
        {
          "internalType": "uint256",
          "name": "_amount",
          "type": "uint256"
        }
      ],
      "name": "shipPackage",
      "outputs": [],
      "payable": false,
      "stateMutability": "nonpayable",
      "type": "function"
    },
    {
      "constant": true,
      "inputs": [],
      "name": "getAllPackages",
      "outputs": [
        {
          "components": [
            {
              "internalType": "string",
              "name": "packageId",
              "type": "string"
            },
            {
              "internalType": "enum Shipment.DeliveryStatus",
              "name": "status",
              "type": "uint8"
            },
            {
              "internalType": "address",
              "name": "sender",
              "type": "address"
            },
            {
              "internalType": "address",
              "name": "receiver",
              "type": "address"
            },
            {
              "internalType": "uint256",
              "name": "amount",
              "type": "uint256"
            }
          ],
          "internalType": "struct Shipment.Package[]",
          "name": "",
          "type": "tuple[]"
        }
      ],
      "payable": false,
      "stateMutability": "view",
      "type": "function"
    },
    {
      "constant": true,
      "inputs": [
        {
          "internalType": "string",
          "name": "_packageId",
          "type": "string"
        }
      ],
      "name": "getPackageById",
      "outputs": [
        {
          "components": [
            {
              "internalType": "string",
              "name": "packageId",
              "type": "string"
            },
            {
              "internalType": "enum Shipment.DeliveryStatus",
              "name": "status",
              "type": "uint8"
            },
            {
              "internalType": "address",
              "name": "sender",
              "type": "address"
            },
            {
              "internalType": "address",
              "name": "receiver",
              "type": "address"
            },
            {
              "internalType": "uint256",
              "name": "amount",
              "type": "uint256"
            }
          ],
          "internalType": "struct Shipment.Package",
          "name": "",
          "type": "tuple"
        }
      ],
      "payable": false,
      "stateMutability": "view",
      "type": "function"
    },
    {
      "constant": false,
      "inputs": [],
      "name": "fundContract",
      "outputs": [],
      "payable": true,
      "stateMutability": "payable",
      "type": "function"
    },
    {
      "constant": false,
      "inputs": [
        {
          "internalType": "string",
          "name": "_packageId",
          "type": "string"
        }
      ],
      "name": "deliverPackage",
      "outputs": [],
      "payable": true,
      "stateMutability": "payable",
      "type": "function"
    }
  ],
  "bytecode": "0x608060405234801561001057600080fd5b50600180546001600160a01b03191633179055611092806100326000396000f3fe60806040526004361061004a5760003560e01c80630a421f0f1461004c57806352a2e3de1461007757806391000af61461008a578063a80c6b04146100aa578063bd097e21146100d7575b005b34801561005857600080fd5b506100616100df565b60405161006e9190610e22565b60405180910390f35b61004a610085366004610a12565b61025f565b34801561009657600080fd5b5061004a6100a5366004610a4f565b610530565b3480156100b657600080fd5b506100ca6100c5366004610a12565b610678565b60405161006e9190610f13565b61004a61084d565b6001546060906001600160a01b031633146101155760405162461bcd60e51b815260040161010c90610ec3565b60405180910390fd5b6000805480602002602001604051908101604052809291908181526020016000905b828210156102555760008481526020908190206040805160048602909201805460026001821615610100026000190190911604601f8101859004909402830160c090810190925260a08301848152929390928492909184918401828280156101e05780601f106101b5576101008083540402835291602001916101e0565b820191906000526020600020905b8154815290600101906020018083116101c357829003601f168201915b505050918352505060018281015460209092019160ff169081111561020157fe5b600181111561020c57fe5b81526001828101546001600160a01b0361010090910481166020808501919091526002850154909116604084015260039093015460609092019190915291835292019101610137565b5050505090505b90565b60005b600054811015610514578160405160200161027d9190610e0a565b60405160208183030381529060405280519060200120600082815481106102a057fe5b90600052602060002090600402016000016040516020016102c19190610e16565b60405160208183030381529060405280519060200120141561050c57600081815481106102ea57fe5b60009182526020909120600490910201600201546001600160a01b031633146103255760405162461bcd60e51b815260040161010c90610ed3565b60016000828154811061033457fe5b60009182526020909120600160049092020181015460ff169081111561035657fe5b14156103745760405162461bcd60e51b815260040161010c90610f03565b600080828154811061038257fe5b906000526020600020906004020160010160019054906101000a90046001600160a01b03169050806001600160a01b03166108fc600084815481106103c357fe5b9060005260206000209060040201600301549081150290604051600060405180830381858888f19350505050158015610400573d6000803e3d6000fd5b5060016000838154811061041057fe5b906000526020600020906004020160010160006101000a81548160ff0219169083600181111561043c57fe5b02179055507fff6b446d0147426b6a8aefe5f2fd424eb5f9fd3129944e1a3782f7a5c1043e40836001604051610473929190610ea3565b60405180910390a17f565c7d0f9db560e3782ce79bffac45117678b30dcee064ec047b76c7fa788ba983600084815481106104aa57fe5b906000526020600020906004020160010160019054906101000a90046001600160a01b0316600085815481106104dc57fe5b9060005260206000209060040201600301546040516104fd93929190610e76565b60405180910390a1505061052d565b600101610262565b5060405162461bcd60e51b815260040161010c90610ef3565b50565b6105386108da565b6040805160a081019091528481526020810160008152336020808301919091526001600160a01b038616604083015260609091018490526000805460018101808355918052835180519495509193859360049092027f290decd9548b62a8d60345a988386fc84ba6bc95484008f6362f93160ef3e56301926105be92849291019061090a565b50602082015160018083018054909160ff199091169083818111156105df57fe5b0217905550604082810151600183018054610100600160a81b0319166101006001600160a01b039384160217905560608401516002840180546001600160a01b03191691909216179055608090920151600390910155517f21b906ee2de6bc7472bd9fbddd7bf62100e88402be34ef3bc4df101616962b20915061066a908690339087908790610e33565b60405180910390a150505050565b6106806108da565b6001546001600160a01b031633146106aa5760405162461bcd60e51b815260040161010c90610ec3565b60005b60005481101561051457826040516020016106c89190610e0a565b60405160208183030381529060405280519060200120600082815481106106eb57fe5b906000526020600020906004020160000160405160200161070c9190610e16565b604051602081830303815290604052805190602001201415610840576000818154811061073557fe5b600091825260209182902060408051600493909302909101805460026001821615610100026000190190911604601f8101859004909402830160c090810190925260a08301848152929390928492909184918401828280156107d85780601f106107ad576101008083540402835291602001916107d8565b820191906000526020600020905b8154815290600101906020018083116107bb57829003601f168201915b505050918352505060018281015460209092019160ff16908111156107f957fe5b600181111561080457fe5b815260018201546001600160a01b0361010090910481166020830152600283015416604082015260039091015460609091015291506108489050565b6001016106ad565b919050565b6001546001600160a01b031633146108775760405162461bcd60e51b815260040161010c90610ec3565b600034116108975760405162461bcd60e51b815260040161010c90610ee3565b336001600160a01b03167f5af8184bef8e4b45eb9f6ed7734d04da38ced226495548f46e0c8ff8d7d9a524346040516108d09190610f24565b60405180910390a2565b6040805160a081019091526060815260208101600081526000602082018190526040820181905260609091015290565b828054600181600116156101000203166002900490600052602060002090601f016020900481019282601f1061094b57805160ff1916838001178555610978565b82800160010185558215610978579182015b8281111561097857825182559160200191906001019061095d565b50610984929150610988565b5090565b61025c91905b80821115610984576000815560010161098e565b80356109ad81611032565b92915050565b600082601f8301126109c457600080fd5b81356109d76109d282610f59565b610f32565b915080825260208301602083018583830111156109f357600080fd5b6109fe838284610fe2565b50505092915050565b80356109ad81611046565b600060208284031215610a2457600080fd5b813567ffffffffffffffff811115610a3b57600080fd5b610a47848285016109b3565b949350505050565b600080600060608486031215610a6457600080fd5b833567ffffffffffffffff811115610a7b57600080fd5b610a87868287016109b3565b9350506020610a98868287016109a2565b9250506040610aa986828701610a07565b9150509250925092565b6000610abf8383610d93565b9392505050565b610acf81610fc1565b82525050565b610acf81610fa0565b6000610ae982610f93565b610af38185610f97565b935083602082028501610b0585610f81565b8060005b85811015610b3f5784840389528151610b228582610ab3565b9450610b2d83610f81565b60209a909a0199925050600101610b09565b5091979650505050505050565b610acf81610fcc565b6000610b6082610f93565b610b6a8185610f97565b9350610b7a818560208601610fee565b610b838161101e565b9093019392505050565b6000610b9882610f93565b610ba28185610848565b9350610bb2818560208601610fee565b9290920192915050565b600081546001811660008114610bd95760018114610bfc57610c3b565b607f6002830416610bea8187610848565b60ff1984168152955085019250610c3b565b60028204610c0a8187610848565b9550610c1585610f87565b60005b82811015610c3457815488820152600190910190602001610c18565b5050850192505b505092915050565b6000610c50602583610f97565b7f4f6e6c7920746865206f776e65722063616e2063616c6c20746869732066756e81526431ba34b7b760d91b602082015260400192915050565b6000610c97603383610f97565b7f4f6e6c79207468652072656365697665722063616e206d61726b2074686520708152721858dad859d948185cc819195b1a5d995c9959606a1b602082015260400192915050565b6000610cec602183610f97565b7f53656e742076616c7565206d7573742062652067726561746572207468616e208152600360fc1b602082015260400192915050565b6000610d2f601183610f97565b70141858dad859d9481b9bdd08199bdd5b99607a1b815260200192915050565b6000610d5c602283610f97565b7f5061636b6167652068617320616c7265616479206265656e2064656c69766572815261195960f21b602082015260400192915050565b805160a080845260009190840190610dab8282610b55565b9150506020830151610dc06020860182610b4c565b506040830151610dd36040860182610ad5565b506060830151610de66060860182610ad5565b506080830151610df96080860182610e01565b509392505050565b610acf8161025c565b6000610abf8284610b8d565b6000610abf8284610bbc565b60208082528101610abf8184610ade565b60808082528101610e448187610b55565b9050610e536020830186610ac6565b610e606040830185610ad5565b610e6d6060830184610e01565b95945050505050565b60608082528101610e878186610b55565b9050610e966020830185610ad5565b610a476040830184610e01565b60408082528101610eb48185610b55565b9050610abf6020830184610b4c565b602080825281016109ad81610c43565b602080825281016109ad81610c8a565b602080825281016109ad81610cdf565b602080825281016109ad81610d22565b602080825281016109ad81610d4f565b60208082528101610abf8184610d93565b602081016109ad8284610e01565b60405181810167ffffffffffffffff81118282101715610f5157600080fd5b604052919050565b600067ffffffffffffffff821115610f7057600080fd5b506020601f91909101601f19160190565b60200190565b60009081526020902090565b5190565b90815260200190565b60006109ad82610fb5565b8061084881611028565b6001600160a01b031690565b60006109ad82610fd7565b60006109ad82610fab565b60006109ad82610fa0565b82818337506000910152565b60005b83811015611009578181015183820152602001610ff1565b83811115611018576000848401525b50505050565b601f01601f191690565b6002811061052d57fe5b61103b81610fa0565b811461052d57600080fd5b61103b8161025c56fea365627a7a723158209364415104d342284f605cb97d7c8cc98a07ce6ee366e249dc164532d5550bfb6c6578706572696d656e74616cf564736f6c63430005110040",
  "source": "// SPDX-License-Identifier: MIT\n\npragma solidity ^0.5.0;\npragma experimental ABIEncoderV2;\n\ncontract Shipment {\n  enum DeliveryStatus { SHIPPED, DELIVERED }\n\n  struct Package {\n    string packageId;\n    DeliveryStatus status;\n    address sender;\n    address receiver;\n    uint256 amount;\n  }\n\n  //mapping(string => Package) packages;\n  Package[] packages;\n  address owner;\n\n  event Funded(address indexed sender, uint256 amount);\n  event PackageCreated(string packageId, address sender, address receiver, uint256 value);\n  event DeliveryStatusUpdated(string packageId, DeliveryStatus status);\n  event PackageDelivered(string packageId, address sender, uint256 amount);\n\n  // This modifier is required so that only the owners of the contract can access informations about packages that are shipped\n   modifier onlyOwner() {\n    require(msg.sender == owner, \"Only the owner can call this function\");\n    _;\n  }\n\n  constructor() public {\n    owner = msg.sender;\n  }\n\n  // This function is called to save a newly-shipped package on chain. \n  function shipPackage(string memory _packageId, address _receiver, uint256 _amount) public {\n      Package memory newPackage = Package(_packageId, DeliveryStatus.SHIPPED, msg.sender, _receiver, _amount);\n      packages.push(newPackage);\n      emit PackageCreated(_packageId, msg.sender, _receiver, _amount);\n  }\n\n  function getAllPackages() public view onlyOwner returns (Package[] memory) {\n    return packages;\n  }\n\n  function getPackageById(string memory _packageId) public view onlyOwner returns (Package memory) {\n    for (uint i = 0; i < packages.length; i++) {\n      if (keccak256(abi.encodePacked(packages[i].packageId)) == keccak256(abi.encodePacked(_packageId))) {\n        return packages[i];\n      }\n    }\n    revert(\"Package not found\");\n  }\n\n\n      // Fallback function allows the contract to receive Ether\n    function() external payable {\n        // You can handle the received Ether here if needed\n    }\n\n    // Function to allow the owner to send funds to the contract\n    function fundContract() external payable onlyOwner {\n        require(msg.value > 0, \"Sent value must be greater than 0\");\n        \n        // You can add custom logic here to handle the received funds\n        emit Funded(msg.sender, msg.value);\n    }\n\n  // Function responsible for package delivery and payouts\n  function deliverPackage(string memory _packageId) public payable {\n    for (uint i = 0; i < packages.length; i++) {\n      if (keccak256(abi.encodePacked(packages[i].packageId)) == keccak256(abi.encodePacked(_packageId))) {\n        require(msg.sender == packages[i].receiver, \"Only the receiver can mark the package as delivered\");\n        require(packages[i].status != DeliveryStatus.DELIVERED, \"Package has already been delivered\");\n        \n        address payable sender = address(uint160(packages[i].sender));\n        sender.transfer(packages[i].amount);\n\n        // Update package status\n        packages[i].status = DeliveryStatus.DELIVERED;\n        emit DeliveryStatusUpdated(_packageId, DeliveryStatus.DELIVERED);\n        emit PackageDelivered(_packageId, packages[i].sender, packages[i].amount);\n        \n        return;\n      }\n    }\n    revert(\"Package not found\");\n  }\n\n}\n",
  "sourcePath": "/Users/meelunae/Desktop/Desktop/Università/Magistrale/Primo Anno/Progetto IoT/Contract/contracts/Shipment.sol",
  "compiler": {
    "name": "solc",
    "version": "0.5.17+commit.d19bba13.Emscripten.clang"
  },
  "schemaVersion": "3.4.16",
  "updatedAt": "2023-12-13T19:19:21.028Z",
  "networkType": "ethereum",
  "devdoc": {
    "methods": {}
  },
  "userdoc": {
    "methods": {}
  }
}