{
  "contractName": "Shipment",
  "abi": [
    {
      "inputs": [],
      "payable": false,
      "stateMutability": "nonpayable",
      "type": "constructor"
    },
    {
      "anonymous": false,
      "inputs": [
        {
          "indexed": false,
          "internalType": "string",
          "name": "packageId",
          "type": "string"
        },
        {
          "indexed": false,
          "internalType": "enum Shipment.DeliveryStatus",
          "name": "status",
          "type": "uint8"
        }
      ],
      "name": "DeliveryStatusUpdated",
      "type": "event"
    },
    {
      "anonymous": false,
      "inputs": [
        {
          "indexed": true,
          "internalType": "address",
          "name": "sender",
          "type": "address"
        },
        {
          "indexed": false,
          "internalType": "uint256",
          "name": "amount",
          "type": "uint256"
        }
      ],
      "name": "Funded",
      "type": "event"
    },
    {
      "anonymous": false,
      "inputs": [
        {
          "indexed": false,
          "internalType": "string",
          "name": "packageId",
          "type": "string"
        },
        {
          "indexed": false,
          "internalType": "address",
          "name": "sender",
          "type": "address"
        },
        {
          "indexed": false,
          "internalType": "address",
          "name": "receiver",
          "type": "address"
        },
        {
          "indexed": false,
          "internalType": "uint256",
          "name": "value",
          "type": "uint256"
        }
      ],
      "name": "PackageCreated",
      "type": "event"
    },
    {
      "anonymous": false,
      "inputs": [
        {
          "indexed": false,
          "internalType": "string",
          "name": "packageId",
          "type": "string"
        },
        {
          "indexed": false,
          "internalType": "address",
          "name": "sender",
          "type": "address"
        },
        {
          "indexed": false,
          "internalType": "uint256",
          "name": "amount",
          "type": "uint256"
        }
      ],
      "name": "PackageDelivered",
      "type": "event"
    },
    {
      "anonymous": false,
      "inputs": [
        {
          "indexed": false,
          "internalType": "string",
          "name": "packageId",
          "type": "string"
        }
      ],
      "name": "PackagePaidFor",
      "type": "event"
    },
    {
      "anonymous": false,
      "inputs": [
        {
          "indexed": false,
          "internalType": "string",
          "name": "packageId",
          "type": "string"
        }
      ],
      "name": "PackageShipped",
      "type": "event"
    },
    {
      "payable": true,
      "stateMutability": "payable",
      "type": "fallback"
    },
    {
      "constant": false,
      "inputs": [
        {
          "internalType": "string",
          "name": "_packageId",
          "type": "string"
        },
        {
          "internalType": "address",
          "name": "_receiver",
          "type": "address"
        },
        {
          "internalType": "uint256",
          "name": "_amount",
          "type": "uint256"
        }
      ],
      "name": "createPackage",
      "outputs": [],
      "payable": false,
      "stateMutability": "nonpayable",
      "type": "function"
    },
    {
      "constant": false,
      "inputs": [
        {
          "internalType": "string",
          "name": "_packageId",
          "type": "string"
        }
      ],
      "name": "shipPackage",
      "outputs": [],
      "payable": false,
      "stateMutability": "nonpayable",
      "type": "function"
    },
    {
      "constant": false,
      "inputs": [
        {
          "internalType": "string",
          "name": "_packageId",
          "type": "string"
        }
      ],
      "name": "payForPackage",
      "outputs": [],
      "payable": true,
      "stateMutability": "payable",
      "type": "function"
    },
    {
      "constant": false,
      "inputs": [
        {
          "internalType": "string",
          "name": "_packageId",
          "type": "string"
        }
      ],
      "name": "deliverPackage",
      "outputs": [],
      "payable": true,
      "stateMutability": "payable",
      "type": "function"
    },
    {
      "constant": true,
      "inputs": [],
      "name": "getAllPackages",
      "outputs": [
        {
          "components": [
            {
              "internalType": "string",
              "name": "packageId",
              "type": "string"
            },
            {
              "internalType": "enum Shipment.DeliveryStatus",
              "name": "status",
              "type": "uint8"
            },
            {
              "internalType": "address",
              "name": "sender",
              "type": "address"
            },
            {
              "internalType": "address",
              "name": "receiver",
              "type": "address"
            },
            {
              "internalType": "uint256",
              "name": "amount",
              "type": "uint256"
            }
          ],
          "internalType": "struct Shipment.Package[]",
          "name": "",
          "type": "tuple[]"
        }
      ],
      "payable": false,
      "stateMutability": "view",
      "type": "function"
    },
    {
      "constant": true,
      "inputs": [
        {
          "internalType": "string",
          "name": "_packageId",
          "type": "string"
        }
      ],
      "name": "getPackageById",
      "outputs": [
        {
          "components": [
            {
              "internalType": "string",
              "name": "packageId",
              "type": "string"
            },
            {
              "internalType": "enum Shipment.DeliveryStatus",
              "name": "status",
              "type": "uint8"
            },
            {
              "internalType": "address",
              "name": "sender",
              "type": "address"
            },
            {
              "internalType": "address",
              "name": "receiver",
              "type": "address"
            },
            {
              "internalType": "uint256",
              "name": "amount",
              "type": "uint256"
            }
          ],
          "internalType": "struct Shipment.Package",
          "name": "",
          "type": "tuple"
        }
      ],
      "payable": false,
      "stateMutability": "view",
      "type": "function"
    },
    {
      "constant": false,
      "inputs": [],
      "name": "fundContract",
      "outputs": [],
      "payable": true,
      "stateMutability": "payable",
      "type": "function"
    }
  ],
  "bytecode": "0x608060405234801561001057600080fd5b50600180546001600160a01b03191633179055611836806100326000396000f3fe6080604052600436106100705760003560e01c80636b18ef071161004e5780636b18ef07146100d0578063a80c6b04146100f0578063bd097e211461011d578063c6a3f7a11461012557610070565b80630a421f0f1461007257806352a2e3de1461009d5780635c5c3346146100b0575b005b34801561007e57600080fd5b50610087610138565b6040516100949190611552565b60405180910390f35b6100706100ab366004611021565b6102b8565b3480156100bc57600080fd5b506100706100cb36600461105e565b610653565b3480156100dc57600080fd5b506100706100eb366004611021565b6107c4565b3480156100fc57600080fd5b5061011061010b366004611021565b610a11565b6040516100949190611694565b610070610be6565b610070610133366004611021565b610c73565b6001546060906001600160a01b0316331461016e5760405162461bcd60e51b815260040161016590611604565b60405180910390fd5b6000805480602002602001604051908101604052809291908181526020016000905b828210156102ae5760008481526020908190206040805160048602909201805460026001821615610100026000190190911604601f8101859004909402830160c090810190925260a08301848152929390928492909184918401828280156102395780601f1061020e57610100808354040283529160200191610239565b820191906000526020600020905b81548152906001019060200180831161021c57829003601f168201915b5050509183525050600182015460209091019060ff16600381111561025a57fe5b600381111561026557fe5b81526001828101546001600160a01b0361010090910481166020808501919091526002850154909116604084015260039093015460609092019190915291835292019101610190565b5050505090505b90565b8060005b60005481101561062857816040516020016102d7919061153a565b60405160208183030381529060405280519060200120600082815481106102fa57fe5b906000526020600020906004020160000160405160200161031b9190611546565b604051602081830303815290604052805190602001201415610647576000818154811061034457fe5b60009182526020909120600490910201600201546001600160a01b0316331461037f5760405162461bcd60e51b815260040161016590611654565b60005b600054811015610628578360405160200161039d919061153a565b60405160208183030381529060405280519060200120600082815481106103c057fe5b90600052602060002090600402016000016040516020016103e19190611546565b6040516020818303038152906040528051906020012014156106205760026000828154811061040c57fe5b600091825260209091206001600490920201015460ff16600381111561042e57fe5b1461044b5760405162461bcd60e51b815260040161016590611664565b60036000828154811061045a57fe5b600091825260209091206001600490920201015460ff16600381111561047c57fe5b141561049a5760405162461bcd60e51b815260040161016590611684565b60008082815481106104a857fe5b906000526020600020906004020160010160019054906101000a90046001600160a01b03169050806001600160a01b03166108fc600084815481106104e957fe5b9060005260206000209060040201600301549081150290604051600060405180830381858888f19350505050158015610526573d6000803e3d6000fd5b5060036000838154811061053657fe5b906000526020600020906004020160010160006101000a81548160ff0219169083600381111561056257fe5b02179055506000805160206117d48339815191528560036040516105879291906115e4565b60405180910390a17f565c7d0f9db560e3782ce79bffac45117678b30dcee064ec047b76c7fa788ba985600084815481106105be57fe5b906000526020600020906004020160010160019054906101000a90046001600160a01b0316600085815481106105f057fe5b906000526020600020906004020160030154604051610611939291906115b7565b60405180910390a15050610641565b600101610382565b5060405162461bcd60e51b815260040161016590611674565b5061064f565b6001016102bc565b5050565b61065b610ee9565b6040805160a081019091528481526020810160008152336020808301919091526001600160a01b038616604083015260609091018490526000805460018101808355918052835180519495509193859360049092027f290decd9548b62a8d60345a988386fc84ba6bc95484008f6362f93160ef3e56301926106e1928492910190610f19565b50602082015160018083018054909160ff199091169083600381111561070357fe5b0217905550604082810151600183018054610100600160a81b0319166101006001600160a01b039384160217905560608401516002840180546001600160a01b03191691909216179055608090920151600390910155516000805160206117d483398151915291506107799086906000906115e4565b60405180910390a17f21b906ee2de6bc7472bd9fbddd7bf62100e88402be34ef3bc4df101616962b20843385856040516107b69493929190611574565b60405180910390a150505050565b8060005b60005481101561062857816040516020016107e3919061153a565b604051602081830303815290604052805190602001206000828154811061080657fe5b90600052602060002090600402016000016040516020016108279190611546565b604051602081830303815290604052805190602001201415610a09576000818154811061085057fe5b600091825260209091206004909102016001015461010090046001600160a01b031633146108905760405162461bcd60e51b815260040161016590611634565b60005b60005481101561062857836040516020016108ae919061153a565b60405160208183030381529060405280519060200120600082815481106108d157fe5b90600052602060002090600402016000016040516020016108f29190611546565b604051602081830303815290604052805190602001201415610a015760016000828154811061091d57fe5b600091825260209091206001600490920201015460ff16600381111561093f57fe5b1461095c5760405162461bcd60e51b815260040161016590611624565b60026000828154811061096b57fe5b906000526020600020906004020160010160006101000a81548160ff0219169083600381111561099757fe5b02179055506000805160206117d48339815191528460026040516109bc9291906115e4565b60405180910390a17f447b27e783ffe57ba3d0fa261ffbbd70d58b5914b20ebb6aa1f337e375b0139a846040516109f39190611563565b60405180910390a150610641565b600101610893565b6001016107c8565b610a19610ee9565b6001546001600160a01b03163314610a435760405162461bcd60e51b815260040161016590611604565b60005b6000548110156106285782604051602001610a61919061153a565b6040516020818303038152906040528051906020012060008281548110610a8457fe5b9060005260206000209060040201600001604051602001610aa59190611546565b604051602081830303815290604052805190602001201415610bd95760008181548110610ace57fe5b600091825260209182902060408051600493909302909101805460026001821615610100026000190190911604601f8101859004909402830160c090810190925260a0830184815292939092849290918491840182828015610b715780601f10610b4657610100808354040283529160200191610b71565b820191906000526020600020905b815481529060010190602001808311610b5457829003601f168201915b5050509183525050600182015460209091019060ff166003811115610b9257fe5b6003811115610b9d57fe5b815260018201546001600160a01b036101009091048116602083015260028301541660408201526003909101546060909101529150610be19050565b600101610a46565b919050565b6001546001600160a01b03163314610c105760405162461bcd60e51b815260040161016590611604565b60003411610c305760405162461bcd60e51b815260040161016590611644565b336001600160a01b03167f5af8184bef8e4b45eb9f6ed7734d04da38ced226495548f46e0c8ff8d7d9a52434604051610c6991906116a5565b60405180910390a2565b8060005b6000548110156106285781604051602001610c92919061153a565b6040516020818303038152906040528051906020012060008281548110610cb557fe5b9060005260206000209060040201600001604051602001610cd69190611546565b604051602081830303815290604052805190602001201415610ee15760008181548110610cff57fe5b60009182526020909120600490910201600201546001600160a01b03163314610d3a5760405162461bcd60e51b815260040161016590611654565b60005b6000548110156106285783604051602001610d58919061153a565b6040516020818303038152906040528051906020012060008281548110610d7b57fe5b9060005260206000209060040201600001604051602001610d9c9190611546565b604051602081830303815290604052805190602001201415610ed9576000808281548110610dc657fe5b600091825260209091206001600490920201015460ff166003811115610de857fe5b14610e055760405162461bcd60e51b815260040161016590611624565b60008181548110610e1257fe5b9060005260206000209060040201600301543414610e425760405162461bcd60e51b815260040161016590611614565b600160008281548110610e5157fe5b906000526020600020906004020160010160006101000a81548160ff02191690836003811115610e7d57fe5b02179055506000805160206117d4833981519152846001604051610ea29291906115e4565b60405180910390a17f18f25fc3751a2b4c5dea8b9d28f0c3538f19369b6e2830cde9ffd0a788c7af9a846040516109f39190611563565b600101610d3d565b600101610c77565b6040805160a081019091526060815260208101600081526000602082018190526040820181905260609091015290565b828054600181600116156101000203166002900490600052602060002090601f016020900481019282601f10610f5a57805160ff1916838001178555610f87565b82800160010185558215610f87579182015b82811115610f87578251825591602001919060010190610f6c565b50610f93929150610f97565b5090565b6102b591905b80821115610f935760008155600101610f9d565b8035610fbc816117b6565b92915050565b600082601f830112610fd357600080fd5b8135610fe6610fe1826116da565b6116b3565b9150808252602083016020830185838301111561100257600080fd5b61100d838284611763565b50505092915050565b8035610fbc816117ca565b60006020828403121561103357600080fd5b813567ffffffffffffffff81111561104a57600080fd5b61105684828501610fc2565b949350505050565b60008060006060848603121561107357600080fd5b833567ffffffffffffffff81111561108a57600080fd5b61109686828701610fc2565b93505060206110a786828701610fb1565b92505060406110b886828701611016565b9150509250925092565b60006110ce83836114c3565b9392505050565b6110de81611742565b82525050565b6110de81611721565b60006110f882611714565b6111028185611718565b93508360208202850161111485611702565b8060005b8581101561114e578484038952815161113185826110c2565b945061113c83611702565b60209a909a0199925050600101611118565b5091979650505050505050565b6110de8161174d565b600061116f82611714565b6111798185611718565b935061118981856020860161176f565b6111928161179f565b9093019392505050565b60006111a782611714565b6111b18185610be1565b93506111c181856020860161176f565b9290920192915050565b6000815460018116600081146111e8576001811461120b5761124a565b607f60028304166111f98187610be1565b60ff198416815295508501925061124a565b600282046112198187610be1565b955061122485611708565b60005b8281101561124357815488820152600190910190602001611227565b5050850192505b505092915050565b600061125f602583611718565b7f4f6e6c7920746865206f776e65722063616e2063616c6c20746869732066756e81526431ba34b7b760d91b602082015260400192915050565b60006112a6601883611718565b7f496e636f7272656374207061796d656e7420616d6f756e740000000000000000815260200192915050565b60006112df602483611718565b7f5061636b616765206973206e6f7420696e2074686520636f72726563742073748152636174757360e01b602082015260400192915050565b6000611325602e83611718565b7f4f6e6c7920746865207061636b6167652073656e6465722063616e2063616c6c81526d103a3434b990333ab731ba34b7b760911b602082015260400192915050565b6000611375602183611718565b7f53656e742076616c7565206d7573742062652067726561746572207468616e208152600360fc1b602082015260400192915050565b60006113b8603083611718565b7f4f6e6c7920746865207061636b6167652072656365697665722063616e20636181526f3636103a3434b990333ab731ba34b7b760811b602082015260400192915050565b600061140a603383611718565b7f5061636b61676520686173206e6f74206265656e2073686970706564207965748152722c2063616e2774206265207363616e6e65642160681b602082015260400192915050565b600061145f601183611718565b70141858dad859d9481b9bdd08199bdd5b99607a1b815260200192915050565b600061148c602283611718565b7f5061636b6167652068617320616c7265616479206265656e2064656c69766572815261195960f21b602082015260400192915050565b805160a0808452600091908401906114db8282611164565b91505060208301516114f0602086018261115b565b50604083015161150360408601826110e4565b50606083015161151660608601826110e4565b5060808301516115296080860182611531565b509392505050565b6110de816102b5565b60006110ce828461119c565b60006110ce82846111cb565b602080825281016110ce81846110ed565b602080825281016110ce8184611164565b608080825281016115858187611164565b905061159460208301866110d5565b6115a160408301856110e4565b6115ae6060830184611531565b95945050505050565b606080825281016115c88186611164565b90506115d760208301856110e4565b6110566040830184611531565b604080825281016115f58185611164565b90506110ce602083018461115b565b60208082528101610fbc81611252565b60208082528101610fbc81611299565b60208082528101610fbc816112d2565b60208082528101610fbc81611318565b60208082528101610fbc81611368565b60208082528101610fbc816113ab565b60208082528101610fbc816113fd565b60208082528101610fbc81611452565b60208082528101610fbc8161147f565b602080825281016110ce81846114c3565b60208101610fbc8284611531565b60405181810167ffffffffffffffff811182821017156116d257600080fd5b604052919050565b600067ffffffffffffffff8211156116f157600080fd5b506020601f91909101601f19160190565b60200190565b60009081526020902090565b5190565b90815260200190565b6000610fbc82611736565b80610be1816117a9565b6001600160a01b031690565b6000610fbc82611758565b6000610fbc8261172c565b6000610fbc82611721565b82818337506000910152565b60005b8381101561178a578181015183820152602001611772565b83811115611799576000848401525b50505050565b601f01601f191690565b600481106117b357fe5b50565b6117bf81611721565b81146117b357600080fd5b6117bf816102b556feff6b446d0147426b6a8aefe5f2fd424eb5f9fd3129944e1a3782f7a5c1043e40a365627a7a72315820783b28bdc990b7446e54784f63f42fa953aab1ada7d54eff874955fb7486774f6c6578706572696d656e74616cf564736f6c63430005110040",
  "source": "// SPDX-License-Identifier: MIT\n\npragma solidity ^0.5.0;\npragma experimental ABIEncoderV2;\n\ncontract Shipment {\n  enum DeliveryStatus { CREATED, PAID, SHIPPED, DELIVERED }\n\n  struct Package {\n    string packageId;\n    DeliveryStatus status;\n    address sender;\n    address receiver;\n    uint256 amount;\n  }\n\n  //mapping(string => Package) packages;\n  Package[] packages;\n  address owner;\n\n  event Funded(address indexed sender, uint256 amount);\n  event PackageCreated(string packageId, address sender, address receiver, uint256 value);\n  event PackagePaidFor(string packageId);\n  event PackageShipped(string packageId);\n  event PackageDelivered(string packageId, address sender, uint256 amount);\n  event DeliveryStatusUpdated(string packageId, DeliveryStatus status);\n\n\n  // This modifier is required so that only the owners of the contract can access informations about packages that are shipped\n  modifier onlyOwner() {\n    require(msg.sender == owner, \"Only the owner can call this function\");\n    _;\n  }\n\n  modifier onlyBuyer(string memory _packageId) {\n      for (uint i = 0; i < packages.length; i++) {\n        if (keccak256(abi.encodePacked(packages[i].packageId)) == keccak256(abi.encodePacked(_packageId))) {\n          require(msg.sender == packages[i].receiver, \"Only the package receiver can call this function\");\n          _; \n          return;\n        }\n      }\n      revert(\"Package not found\");\n  }\n\n  modifier onlySeller(string memory _packageId) {\n      for (uint i = 0; i < packages.length; i++) {\n        if (keccak256(abi.encodePacked(packages[i].packageId)) == keccak256(abi.encodePacked(_packageId))) {\n          require(msg.sender == packages[i].sender, \"Only the package sender can call this function\");\n          _; \n          return;\n        }\n      }\n      revert(\"Package not found\");\n    }\n\n  constructor() public {\n    owner = msg.sender;\n  }\n\n  // This function is called to save a newly-created package on chain. \n  function createPackage(string memory _packageId, address _receiver, uint256 _amount) public {\n      Package memory newPackage = Package(_packageId, DeliveryStatus.CREATED, msg.sender, _receiver, _amount);\n      packages.push(newPackage);\n      emit DeliveryStatusUpdated(_packageId, DeliveryStatus.CREATED);\n      emit PackageCreated(_packageId, msg.sender, _receiver, _amount);\n      return;\n  }\n\n  // Marking the package as shipped\n  function shipPackage(string memory _packageId) public onlySeller(_packageId) {\n    for (uint i = 0; i < packages.length; i++) {\n      if (keccak256(abi.encodePacked(packages[i].packageId)) == keccak256(abi.encodePacked(_packageId))) {\n          require(packages[i].status == DeliveryStatus.PAID, \"Package is not in the correct status\");\n          packages[i].status = DeliveryStatus.SHIPPED;\n          emit DeliveryStatusUpdated(_packageId, DeliveryStatus.SHIPPED);\n          emit PackageShipped(_packageId);\n          return;\n      }\n    }\n    revert(\"Package not found\");\n  }\n\n  // Payment from receiver to contract\n  function payForPackage(string memory _packageId) public payable onlyBuyer(_packageId) {\n    for (uint i = 0; i < packages.length; i++) {\n      if (keccak256(abi.encodePacked(packages[i].packageId)) == keccak256(abi.encodePacked(_packageId))) {\n        require(packages[i].status == DeliveryStatus.CREATED, \"Package is not in the correct status\");\n        require(msg.value == packages[i].amount, \"Incorrect payment amount\");\n        packages[i].status = DeliveryStatus.PAID;\n        emit DeliveryStatusUpdated(_packageId, DeliveryStatus.PAID);\n        emit PackagePaidFor(_packageId);\n        return;\n      }\n    }\n    revert(\"Package not found\");\n  }\n\n    // Function responsible for package delivery and payouts\n  function deliverPackage(string memory _packageId) public payable onlyBuyer(_packageId) {\n    for (uint i = 0; i < packages.length; i++) {\n      if (keccak256(abi.encodePacked(packages[i].packageId)) == keccak256(abi.encodePacked(_packageId))) {\n        require(packages[i].status == DeliveryStatus.SHIPPED, \"Package has not been shipped yet, can't be scanned!\");\n        require(packages[i].status != DeliveryStatus.DELIVERED, \"Package has already been delivered\");\n        \n        address payable sender = address(uint160(packages[i].sender));\n        sender.transfer(packages[i].amount);\n\n        // Update package status\n        packages[i].status = DeliveryStatus.DELIVERED;\n        emit DeliveryStatusUpdated(_packageId, DeliveryStatus.DELIVERED);\n        emit PackageDelivered(_packageId, packages[i].sender, packages[i].amount);\n        return;\n      }\n    }\n    revert(\"Package not found\");\n  }\n\n  function getAllPackages() public view onlyOwner returns (Package[] memory) {\n    return packages;\n  }\n\n  function getPackageById(string memory _packageId) public view onlyOwner returns (Package memory) {\n    for (uint i = 0; i < packages.length; i++) {\n      if (keccak256(abi.encodePacked(packages[i].packageId)) == keccak256(abi.encodePacked(_packageId))) {\n        return packages[i];\n      }\n    }\n    revert(\"Package not found\");\n  }\n\n\n    // START OF FUNCTIONS TO HANDLE CONTRACT FUNDING\n\n    // Fallback function allows the contract to receive Ether\n    function() external payable {\n    }\n\n    // Function to allow the owner to send funds to the contract\n    function fundContract() external payable onlyOwner {\n        require(msg.value > 0, \"Sent value must be greater than 0\");\n        emit Funded(msg.sender, msg.value);\n    }\n}\n",
  "sourcePath": "/Users/meelunae/Documents/Git Repos/SafeDelivery/Contract/contracts/Shipment.sol",
  "compiler": {
    "name": "solc",
    "version": "0.5.17+commit.d19bba13.Emscripten.clang"
  },
  "schemaVersion": "3.4.16",
  "updatedAt": "2024-01-18T14:20:36.882Z",
  "networkType": "ethereum",
  "devdoc": {
    "methods": {}
  },
  "userdoc": {
    "methods": {}
  }
}