{
  "contractName": "Shipment",
  "abi": [
    {
      "anonymous": false,
      "inputs": [
        {
          "indexed": false,
          "internalType": "string",
          "name": "packageId",
          "type": "string"
        },
        {
          "indexed": false,
          "internalType": "enum Shipment.DeliveryStatus",
          "name": "status",
          "type": "uint8"
        }
      ],
      "name": "DeliveryStatusUpdated",
      "type": "event"
    },
    {
      "anonymous": false,
      "inputs": [
        {
          "indexed": false,
          "internalType": "string",
          "name": "packageId",
          "type": "string"
        },
        {
          "indexed": false,
          "internalType": "address",
          "name": "sender",
          "type": "address"
        },
        {
          "indexed": false,
          "internalType": "address",
          "name": "receiver",
          "type": "address"
        },
        {
          "indexed": false,
          "internalType": "uint256",
          "name": "value",
          "type": "uint256"
        }
      ],
      "name": "PackageCreated",
      "type": "event"
    },
    {
      "constant": false,
      "inputs": [
        {
          "internalType": "string",
          "name": "_packageId",
          "type": "string"
        },
        {
          "internalType": "address",
          "name": "_receiver",
          "type": "address"
        },
        {
          "internalType": "uint256",
          "name": "_amount",
          "type": "uint256"
        }
      ],
      "name": "createPackage",
      "outputs": [],
      "payable": false,
      "stateMutability": "nonpayable",
      "type": "function"
    },
    {
      "constant": true,
      "inputs": [],
      "name": "getAllPackages",
      "outputs": [
        {
          "components": [
            {
              "internalType": "string",
              "name": "packageId",
              "type": "string"
            },
            {
              "internalType": "enum Shipment.DeliveryStatus",
              "name": "status",
              "type": "uint8"
            },
            {
              "internalType": "address",
              "name": "sender",
              "type": "address"
            },
            {
              "internalType": "address",
              "name": "receiver",
              "type": "address"
            },
            {
              "internalType": "uint256",
              "name": "amount",
              "type": "uint256"
            }
          ],
          "internalType": "struct Shipment.Package[]",
          "name": "",
          "type": "tuple[]"
        }
      ],
      "payable": false,
      "stateMutability": "view",
      "type": "function"
    },
    {
      "constant": true,
      "inputs": [
        {
          "internalType": "string",
          "name": "_packageId",
          "type": "string"
        }
      ],
      "name": "getPackageById",
      "outputs": [
        {
          "components": [
            {
              "internalType": "string",
              "name": "packageId",
              "type": "string"
            },
            {
              "internalType": "enum Shipment.DeliveryStatus",
              "name": "status",
              "type": "uint8"
            },
            {
              "internalType": "address",
              "name": "sender",
              "type": "address"
            },
            {
              "internalType": "address",
              "name": "receiver",
              "type": "address"
            },
            {
              "internalType": "uint256",
              "name": "amount",
              "type": "uint256"
            }
          ],
          "internalType": "struct Shipment.Package",
          "name": "",
          "type": "tuple"
        }
      ],
      "payable": false,
      "stateMutability": "view",
      "type": "function"
    }
  ],
  "bytecode": "0x608060405234801561001057600080fd5b50610af7806100206000396000f3fe608060405234801561001057600080fd5b50600436106100415760003560e01c80630a421f0f146100465780635c5c334614610064578063a80c6b0414610079575b600080fd5b61004e610099565b60405161005b919061091f565b60405180910390f35b61007761007236600461066f565b6101e5565b005b61008c610087366004610632565b61032d565b60405161005b9190610983565b60606000805480602002602001604051908101604052809291908181526020016000905b828210156101db5760008481526020908190206040805160048602909201805460026001821615610100026000190190911604601f8101859004909402830160c090810190925260a08301848152929390928492909184918401828280156101665780601f1061013b57610100808354040283529160200191610166565b820191906000526020600020905b81548152906001019060200180831161014957829003601f168201915b505050918352505060018281015460209092019160ff169081111561018757fe5b600181111561019257fe5b81526001828101546001600160a01b03610100909104811660208085019190915260028501549091166040840152600390930154606090920191909152918352920191016100bd565b5050505090505b90565b6101ed6104fa565b6040805160a081019091528481526020810160008152336020808301919091526001600160a01b038616604083015260609091018490526000805460018101808355918052835180519495509193859360049092027f290decd9548b62a8d60345a988386fc84ba6bc95484008f6362f93160ef3e563019261027392849291019061052a565b50602082015160018083018054909160ff1990911690838181111561029457fe5b0217905550604082810151600183018054610100600160a81b0319166101006001600160a01b039384160217905560608401516002840180546001600160a01b03191691909216179055608090920151600390910155517f21b906ee2de6bc7472bd9fbddd7bf62100e88402be34ef3bc4df101616962b20915061031f908690339087908790610930565b60405180910390a150505050565b6103356104fa565b60005b6000548110156104d357826040516020016103539190610907565b604051602081830303815290604052805190602001206000828154811061037657fe5b90600052602060002090600402016000016040516020016103979190610913565b6040516020818303038152906040528051906020012014156104cb57600081815481106103c057fe5b600091825260209182902060408051600493909302909101805460026001821615610100026000190190911604601f8101859004909402830160c090810190925260a08301848152929390928492909184918401828280156104635780601f1061043857610100808354040283529160200191610463565b820191906000526020600020905b81548152906001019060200180831161044657829003601f168201915b505050918352505060018281015460209092019160ff169081111561048457fe5b600181111561048f57fe5b815260018201546001600160a01b0361010090910481166020830152600283015416604082015260039091015460609091015291506104f59050565b600101610338565b5060405162461bcd60e51b81526004016104ec90610973565b60405180910390fd5b919050565b6040805160a081019091526060815260208101600081526000602082018190526040820181905260609091015290565b828054600181600116156101000203166002900490600052602060002090601f016020900481019282601f1061056b57805160ff1916838001178555610598565b82800160010185558215610598579182015b8281111561059857825182559160200191906001019061057d565b506105a49291506105a8565b5090565b6101e291905b808211156105a457600081556001016105ae565b80356105cd81610a97565b92915050565b600082601f8301126105e457600080fd5b81356105f76105f2826109bb565b610994565b9150808252602083016020830185838301111561061357600080fd5b61061e838284610a44565b50505092915050565b80356105cd81610aab565b60006020828403121561064457600080fd5b813567ffffffffffffffff81111561065b57600080fd5b610667848285016105d3565b949350505050565b60008060006060848603121561068457600080fd5b833567ffffffffffffffff81111561069b57600080fd5b6106a7868287016105d3565b93505060206106b8868287016105c2565b92505060406106c986828701610627565b9150509250925092565b60006106df8383610890565b9392505050565b6106ef81610a23565b82525050565b6106ef81610a02565b6000610709826109f5565b61071381856109f9565b935083602082028501610725856109e3565b8060005b8581101561075f578484038952815161074285826106d3565b945061074d836109e3565b60209a909a0199925050600101610729565b5091979650505050505050565b6106ef81610a2e565b6000610780826109f5565b61078a81856109f9565b935061079a818560208601610a50565b6107a381610a80565b9093019392505050565b60006107b8826109f5565b6107c281856104f5565b93506107d2818560208601610a50565b9290920192915050565b6000815460018116600081146107f9576001811461081c5761085b565b607f600283041661080a81876104f5565b60ff198416815295508501925061085b565b6002820461082a81876104f5565b9550610835856109e9565b60005b8281101561085457815488820152600190910190602001610838565b5050850192505b505092915050565b60006108706011836109f9565b70141858dad859d9481b9bdd08199bdd5b99607a1b815260200192915050565b805160a0808452600091908401906108a88282610775565b91505060208301516108bd602086018261076c565b5060408301516108d060408601826106f5565b5060608301516108e360608601826106f5565b5060808301516108f660808601826108fe565b509392505050565b6106ef816101e2565b60006106df82846107ad565b60006106df82846107dc565b602080825281016106df81846106fe565b608080825281016109418187610775565b905061095060208301866106e6565b61095d60408301856106f5565b61096a60608301846108fe565b95945050505050565b602080825281016105cd81610863565b602080825281016106df8184610890565b60405181810167ffffffffffffffff811182821017156109b357600080fd5b604052919050565b600067ffffffffffffffff8211156109d257600080fd5b506020601f91909101601f19160190565b60200190565b60009081526020902090565b5190565b90815260200190565b60006105cd82610a17565b806104f581610a8a565b6001600160a01b031690565b60006105cd82610a39565b60006105cd82610a0d565b60006105cd82610a02565b82818337506000910152565b60005b83811015610a6b578181015183820152602001610a53565b83811115610a7a576000848401525b50505050565b601f01601f191690565b60028110610a9457fe5b50565b610aa081610a02565b8114610a9457600080fd5b610aa0816101e256fea365627a7a72315820c4ee26eebb92a238e257c76375cb33a83ae5a72f1c9ced89ec12da0b47411a216c6578706572696d656e74616cf564736f6c63430005110040",
  "source": "// SPDX-License-Identifier: MIT\n\npragma solidity ^0.5.0;\npragma experimental ABIEncoderV2;\n\ncontract Shipment {\n  enum DeliveryStatus { SHIPPED, DELIVERED }\n\n  struct Package {\n    string packageId;\n    DeliveryStatus status;\n    address sender;\n    address receiver;\n    uint256 amount;\n  }\n\n  //mapping(string => Package) packages;\n  Package[] packages;\n\n  event PackageCreated(string packageId, address sender, address receiver, uint256 value);\n  event DeliveryStatusUpdated(string packageId, DeliveryStatus status);\n\n    // Function to create a new package\n  function createPackage(string memory _packageId, address _receiver, uint256 _amount) public {\n      Package memory newPackage = Package(_packageId, DeliveryStatus.SHIPPED, msg.sender, _receiver, _amount);\n      packages.push(newPackage);\n      emit PackageCreated(_packageId, msg.sender, _receiver, _amount);\n  }\n\n  function getAllPackages() public view returns (Package[] memory) {\n    return packages;\n  }\n\n  function getPackageById(string memory _packageId) public view returns (Package memory) {\n    for (uint i = 0; i < packages.length; i++) {\n      if (keccak256(abi.encodePacked(packages[i].packageId)) == keccak256(abi.encodePacked(_packageId))) {\n        return packages[i];\n      }\n    }\n    revert(\"Package not found\");\n  }\n}\n",
  "sourcePath": "/Users/meelunae/Desktop/Desktop/Università/Magistrale/Primo Anno/Progetto IoT/Server/scontract/contracts/Shipment.sol",
  "compiler": {
    "name": "solc",
    "version": "0.5.17+commit.d19bba13.Emscripten.clang"
  },
  "schemaVersion": "3.4.16",
  "updatedAt": "2023-12-13T00:38:03.155Z",
  "networkType": "ethereum",
  "devdoc": {
    "methods": {}
  },
  "userdoc": {
    "methods": {}
  }
}